:020000020000FC
:100000000C949E01189518951895189518951895A3
:100010001895189518951895189518951895189578
:100020001895189518951895189518951895189568
:100030001895189518951895189518951895189558
:100040001895189518951895189518951895189548
:10005000189518954E6F7774696D65206973203A0D
:01006000009F
:10006200000008950E94C501C801A0E0B0E002C0EE
:10007200F7DF1196A817B907D8F3E4E00C94CA0188
:10008200192F282F80E090E001C001968A3302E008
:100092009007D8F3822F912F08950E94C501C801BD
:1000A200A0E0B0E002C0ECDF1196A817B907D8F3C0
:1000B200E4E00C94CA018A93802F15D0082F18D03F
:1000C20033D0A898A998899108959A938A93902FEA
:1000D200812F09D0092F0CD0082F0AD0A898A998EF
:1000E200899199910895A09AA998A898A89A089593
:1000F2009A938A93902F0FEF04BB80E010C0AA98C6
:1001020090FB0EF4AA9AA99A01E010E00E94330033
:10011200A99801E010E00E943300969583958830FB
:1001220070F38991999108950E94C601A29A90E074
:10013200A0E0AA98A29880E014C000E09A9901E099
:10014200102F10FB00E007F99695902BA99A01E079
:1001520010E00E943300A99801E010E00E943300F1
:100162008395843050F380E014C000E09A9901E056
:10017200102F10FB00E007F9A695A02BA99A01E029
:1001820010E00E943300A99801E010E00E943300C1
:100192008395843050F392959F70A295AF700AE0D8
:1001A200A09F900D092FE3E00C94CB010E94C601A1
:1001B2002D979E0164E570E08901FB014DE050E05E
:1001C2000E94BA010E9493010E94810110E00EE890
:1001D2000E94660019E000E80E94660019E002E849
:1001E2000E94660019E004E80E94660001E80E948D
:1001F2005C00802F03E80E945C00902F05E80E94BB
:100202005C00A02F10E000E00E945F018E010E94BE
:10021200690111E000E00E945F010AE010E00E9423
:100222004E000A2F4AE00E94AC01005D0E94650167
:100232000A2F4AE00E94AC01042F005D0E94650172
:100242000AE30E946501092F4AE00E94AC01005DA9
:100252000E946501092F4AE00E94AC01042F005D53
:100262000E9465010AE30E946501082F4AE00E948C
:10027200AC01005D0E946501082F4AE00E94AC01BA
:10028200042F005D0E946501B1CFDE9A01E010E00B
:100292000E944E00DE9801E010E00E944E00089598
:1002A200000008958A93802FFBDF88BBEEDF8991DF
:1002B2000895DC98DD980068F5DF089520E4129F28
:1002C200002A002DF6DF0895DD98DC9AEBDF089511
:1002D2000E94C501C801A0E007C0B0E0FC01EA0F1E
:1002E200FB1F0081F1DFA395B0E0FC01EA0FFB1FC9
:1002F2000081002311F0A03180F3E4E00C94CA01E4
:100302000FEF07BB0AB300670ABBDC98DD980CE36A
:10031200C9DF0CE3C7DF0CE3C5DF06E0C3DF0CE097
:10032200C1DF089500E00BB908E00AB906E800BD94
:1003320000E000BD0CE009B908950FE90DBF00E02F
:100342000EBFC0E8D0E00E94D5010E94D7000E94F3
:10035200D7010C94D7010024E8E0EA9532F0001F9F
:10036200001C0416D0F3041AF8CF001F402D00958C
:100372000895AF93BF93D80105900D92415050401C
:10038200D9F7BF91AF910895BA93AA939A938A939A
:100392000895BB81AA8199818881F0E00FB6F89413
:1003A200CE0FDF1F0FBE089501E00895000088956B
:0203B200FECF7C
:00000001FF
