:03000B0002000EE2
:10000E00C0E0C0D0758CF1758AF1D28C050CE50C70
:10001E007002050B640B450B7032E508B45008E511
:10002E000D7004F509F50AE508700BE50DB45006E0
:10003E00750900750A01E50A450960060508150DE2
:10004E0080041508050D750B00750C00D0D0D0E09E
:01005E00326F
:10008800EF1FAA0670011E4A6013E4FCFDC3ED943D
:0D00980020EC940050EA0DBD00010C80F03A
:0100A5002238
:10005F00E4F508750D50758901758CF0758AF0D22D
:10006F00AFD2A9D28CC2A0AF0D7E00120088D2A051
:09007F00AF087E0012008880EC3D
:030000000200A655
:0C00A600787FE4F6D8FD75810D02005F44
:00000001FF
