:03000000020D7579
:0C0D7500787FE4F6D8FD7581110208F3C8
:100003004040404020422042504A48724442C37F0D
:1000130044424862505A504220426040204000000F
:100023000000FEFF22025A048643104894247422DF
:1000330094151F0934155423946094C01040000094
:10004300040064002481244124212F19E40724019E
:10005300240124412F81247F240064002400000014
:10006300040064002481244124212F19E40724017E
:10007300240124412F81247F2400640024000000F4
:1000830040404120C61F00204040484849444E4359
:10009300F8404C414B42484C48404040004000002F
:1000A300000818080405840444FC7C46A54626453C
:1000B3002445A446644624FE14040C0C04040000E6
:1000C3000000404030481248DC4B544A504A5F7E9F
:1000D300504A504AD84B16485448384810400000FC
:1000E300000000000058003800000000000000007D
:1000F30000000000000000000000000000000000FD
:10010300028002808283BA42AA4AAF5BAA2ABA2A31
:10011300AA2AAF5BAA4ABA42828302800080000007
:10012300040804080408E40BA40ABF0AA40AA4FEF2
:10013300A40ABF0AA40AE40B040804080408000084
:100143000000040004FEF402841ACC16AD129613C8
:100153009412AC16CC1A8472F482067E040000005A
:100163000000040004FEF402841ACC16AD129613A8
:100173009412AC16CC1A8472F482067E040000003A
:100183000001804060401E41104110411041104168
:10019300FF7F12411041104198411061004000005F
:1001A30040404220CC1F002004400440E55FB64A93
:1001B300AC4AA44AA64AE55F04400440004000005C
:1001C30040002000F87F0700820064412C31340F87
:1001D3006505A60534252C45A43D740120000000C7
:1001E3000000001800240024001800000000000094
:1001F30000000000000000000000000000000000FC
:10020300080008000800087F082108210821FF21B1
:10021300082108210821087F0800080008000000C1
:1002230070000000FFFF08005000440054FF541505
:1002330054157F1554555495547F440040000000D5
:100243000000020802040202020182004200FE7F53
:1002530006004200C20082010207030202000000FE
:10026300000800040003FE001200120912111232EA
:1002730072669200120112021E06000C00040000B6
:10028300000004000420C418B40E8C0487208440AA
:10029300F4FF840084028404841804300000000006
:1002A3001004600401FC860360400430440F6400C2
:1002B30055004E7F4400643FC44004400470000076
:1002C3000010101010081006900170400080FF7F8E
:1002D3002000600090010806040C001800080000CC
:1002E300000000000058003800000000000000007B
:1002F30000000000000000000000000000000000FB
:1003030000200020F03F00100010FF0F20082008FD
:100313000000FF3F40402040204010401078000084
:10032300102010201010FE1F100850084000FE3F40
:1003330020402040FF4F10421044F843107000004B
:100343000000442054385400543CFF410040004214
:10035300004CFF41544054705400440840300000A6
:10036300004000200018FE07021012082204420277
:1003730082017A06121C0200FE0F0030007C00008E
:1003830010001241D2303200FF3B31405142104A3B
:10039300085190407F40906008090C330001000031
:1003A30000000000F87F082108210C210B210821FF
:1003B3000821082108210821F87F0000000000001F
:1003C30008040803C800FFFF480088010A08422404
:1003D3006213D2084A06C6414280C07F0000000073
:1003E3000000001800240024001800000000000092
:1003F30000000000000000000000000000000000FA
:100403002004200422422282FE7F210121012010A8
:100413002010FF082007221AAC21204020F0000002
:10042300082228222A112A11FA0B0A0C0A06FE7F37
:100433000A020904F90D491929312C118801000018
:10044300200022402A442A252A15AA476A853F7D8F
:100453002A05AA042A142A262A4C22002000000076
:1004630040804060FC1F560165464480FC7F0000CD
:10047300E40724022402E4470480FC7F0400000014
:100483000000FEFF02001200921F920892089208D9
:1004930092089208921F12400280FE7F0000000023
:1004A30000800060FC1F4420546354155449558157
:1004B300FE7F540D54115429F46D44C04440000090
:1004C300000000204018FC0C44074412442046401E
:1004D300FA3F420043004302420C40380010000040
:1004E3000000000000580038000000000000000079
:1004F30000000000000000000000000000000000F9
:100503000000FC3F941095089606944CFC40002094
:100513000018FE07220122212241FE3F00000000B5
:10052300FC0704020402FC07002040184806C941E6
:100533000980FA7F00018002700C20180008000077
:100543001004610406FFE00018002000AAFFAA0AB5
:10055300AA0ABF0AAA4AAA8AAA7F2A0000000000A0
:10056300000000800060FF1F00000000000000008A
:10057300FE3F0000000000000000FF7F00000000BD
:100583000200020002000200020002000200020058
:100593000200FE03600C9010082100400078000068
:1005A300040204018400C4FF3C00148285416622D6
:1005B300BC14240924142423E44024C00440000070
:1005C30000000C22041A5506D5FF5506050A7F00C4
:1005D30005FF55555555555505FF0C000400000002
:1005E3000000001800240024001800000000000090
:1005F30000000000000000000000000000000000F8
:10060300000040004800480048FF7F4948494849E6
:10061300484948497F4948FF4800480040000000D6
:100623000000FCFF000011081208F00F52095209E4
:100633005205F27F120412440280FE7F0000000084
:100643000000400130010E01080108010801080102
:10065300FF7F0801080108010801080100010000EB
:10066300100460FC0103C6000002200224FF244999
:10067300A4497F492449344928FF2600200000006B
:10068300FE07020102010201FE07400020011001E2
:100693000C012381C46108191007300160000000B8
:1006A30000200220822082208220823FFE2082209E
:1006B30082208220C23F82200220003000200000DE
:1006C300101010101210D21756155A15521553FD4B
:1006D30052155A155615D217121012101010000089
:1006E3000000000000580038000000000000000077
:1006F30000000000000000000000000000000000F7
:10070300800080004000200210020802240243827D
:10071300C4420832100E20026000C00040000000F6
:1007230000208020841084109408A404C402FFFFD6
:100733008401C402B4049408841884308010000037
:1007430080004000F07F1C000700E207240224021F
:100753002402E40704200440FC3F040004000000DA
:1007630040004200CC3F04500029FC11564D5583F4
:10077300FC7F500090411080FF7F100010000000AC
:10078300102010201410D41154F9544554235F033E
:10079300540554095411D429146410C210400000A4
:1007A30000001829042914159414944AD589B644D1
:1007B300143F14069409040914100C3004100000AB
:1007C3000000FC7F94209510960A9404FC18000006
:1007D3000000FEFF02004208B2080E11020E0000E4
:1007E300000000180024002400180000000000008E
:1007F30000000000000000000000000000000000F6
:10080300800084044404C404A40494448C84FF7EC0
:100813008C059404A40424044404C4044004000088
:1008230000000000F87F082108210C210B2108217A
:100833000821082108210821F87F0000000000009A
:100843000000E00F1010082008201010E00F000037
:10085300000010201020F83F0020002000000000BE
:100863000000703008280824082288217030000016
:10087300000030180820882088204811300E00001E
:1008830000000007C00420241024F83F00240000C7
:100893000000F8190821882088200811080E00009C
:1008A3000000E00F1011882088201811000E0000AE
:1008B300000038000800083FC800380008000000A6
:1008C3000000701C8822082108218822701C000067
:1008D3000000E0001031082208221011E00F000090
:1008E300000000600018000680016000180004008A
:100CF700D3EF9400EE9400401AE4FDFCC3ED947C1E
:100D0700EC940050070DED70010C80F0EF1F70019F
:030D17001E80DD5E
:010D1A0022B6
:050DA500C2A2D2A12250
:100D1B00ED24FF92A4EB24FF92A3120DA5C2A2C255
:080D2B00A18F90D2A0C2A0220A
:100D3300ED24FF92A4EB24FF92A3120DA5D2A2C22D
:080D4300A18F90D2A0C2A022F2
:0C0D8100EF24C0FF7B017D01120D1B223E
:100D4B00AE0574402FFF74B82EFE7B017D01120D92
:070D5B001BAF06120D1B2265
:0C0D8D00743E2FFF7B017D01120D1B2224
:100D6200C2A77F147E00120CF7D2A77F147E001256
:030D72000CF72259
:100C9100120D62E4FF120D8DE4F50DE50DC394080C
:100CA100501BE4F50CE50CC39480500DE4FBAD0D35
:100CB100AF0C120CC9050C80EC050D80DE7F011212
:070CC1000D8DE4FF120D810F
:010CC8002209
:100CC900AC07AA03A905ECC394404011EC24C0FF6A
:100CD900120D4BAF027B01E4FD120D3322AF04ADBF
:0E0CE90001120D4BAF02E4FB7D01120D332210
:060BFC008F0C8D0D8B0E25
:100C0200E4F510E510C394104003020C9075F02037
:100C1200E50EA4F58285F08375F002E510120D99B8
:100C2200E5822403F582E5833400F583E493F5112C
:100C3200E50F6007C374FF9511F511E50CC454F07C
:100C42002510FFAB11AD0D120CC975F020E50EA4F5
:100C5200F58285F08375F002E510120D99E5822484
:100C620004F582E5833400F583E493F511E50F6022
:100C720007C374FF9511F511E50CC454F02510FF5C
:0E0C8200E50D04FDAB11120CC90510020C05A6
:010C90002241
:060B65008F0C8D0D8B0EBC
:100B6B00E4F510E510C394084003020BFB75F0107D
:100B7B00E50EA4F58285F08375F002E510120D9950
:100B8B00E5822443F582E5833408F583E493F5117C
:100B9B00E50F6007C374FF9511F511E50C75F008AF
:100BAB00A42510FFAB11AD0D120CC975F010E50E9D
:100BBB00A4F58285F08375F002E510120D99E5829C
:100BCB002444F582E5833408F583E493F511E50FAE
:100BDB006007C374FF9511F511E50C75F008A4259A
:100BEB0010FFE50D04FDAB11120CC90510020B6EC5
:010BFB0022D7
:1008F300120C917F2C7E01120CF7E4F508E508C376
:100903009402502BE50804FFE5082440FB750F0112
:10091300E4FD120BFCE4F50F7B0AFD7F0D120B6562
:10092300E4F50F7B08FD7F0E120B65050880CEE40E
:10093300F509E509C3940850F6E50904FBE4F50F4E
:10094300FD7F0C120B65E509C394035026E509608E
:1009530005E4F50B8003750B01E4F508E508C39482
:10096300085010850B0FAB087D02AF08120BFC0576
:100973000880E9E509C394045038E509640160057A
:10098300E4F50B8003750B01E509B40305750A0251
:100993008003750A04E4F508E508C394085013E5D9
:1009A300082408FB850B0FAD0AAF08120BFC0508E2
:1009B30080E6E509C39405504BE50964026005E44C
:1009C300F50B8003750B01E509600964016005E51A
:1009D30009B40203750A06E509B40303750A04E5BD
:1009E30009B40403750A02E4F508E508C394085042
:1009F30013E5082410FB850B0FAD0AAF08120BFC9F
:100A0300050880E6E509C394034043E509640360F0
:100A130005E4F50B8003750B01E509B40303750ABF
:100A230006E509B40403750A04E509B40503750A68
:100A330002E4F508E508C394085013E5082418FBFD
:100A4300850B0FAD0AAF08120BFC050880E6E5091C
:100A5300C394044043E50964046005E4F50B800393
:100A6300750B01E509B40403750A06E509B405032A
:100A7300750A04E509B40603750A02E4F508E508F6
:100A8300C394085013E5082420FB850B0FAD0AAF70
:100A930008120BFC050880E6E509C394054043E50D
:100AA3000964056005E4F50B8003750B01E509B4E2
:100AB3000503750A06E509B40603750A04E509B4D6
:100AC3000703750A02E4F508E508C394085013E523
:100AD300082428FB850B0FAD0AAF08120BFC050891
:100AE30080E6E509C39406403BE50964066005E436
:100AF300F50B8003750B01E509B40603750A06E5DA
:100B030009B40703750A04E4F508E508C39408501B
:100B130013E5082430FB850B0FAD0AAF08120BFC5D
:100B2300050880E6E5096407702BE509640760059D
:100B3300E4F50B8003750B01E4F508E508C394089D
:100B43005013E5082438FB850B0F7D06AF08120B05
:100B5300FC050880E67F587E02120CF7050902099E
:010B6300355C
:010B6400226E
:0C0D9900A42582F582E5F03583F5832265
:00000001FF
