:0300000002016B8F
:0C016B00787FE4F6D8FD758113020003D4
:1000A0000002000CFFF0A001AF91AAE2BABAAAA424
:1000B000AAA4AAAAAAB2AFA3A002800200000000CC
:1000C000000000001FFF80006000000040004000B2
:1000D000400040004000400240017FFE0000000060
:1000E00004000401040204040408043005C0FE00F6
:1000F000058004600410040C0406040304020000DC
:1001000002000C40084048403A402A400A428A41D6
:100110007AFE2B400A401840EA404C40084000005C
:10000300E4F598E4F590F50EF50FC2A77401250FFA
:10001300F9E4340112015D7400250FF9E43401128F
:10002300015D74E1250FF9E43400FA7BFF120160EE
:1000330074E0250FF9E43400FA7BFF12016074C108
:10004300250FF9E43400FA7BFF12016074C0250F19
:10005300F9E43400FA7BFF12016074A1250FF9E47F
:100063003400FA7BFF12016074A0250FF9E4340019
:10007300FA7BFF120160D2A7E50EC313E50F13F558
:10008300907402250FF50FE4350EF50EC3E50F94BA
:0D00930020E50E9400500302000D0200064F
:10012000D3EF9400EE9400401AE4F50AF50B050BAA
:10013000E50B7002050A640A450A70F2EF1F70E0D1
:040140001E80DD221E
:03015D00FA7BFF2B
:0B016000120144F5993099FDC299226C
:10014400BB010689828A83E0225002E722BBFE02B9
:09015400E32289828A83E49322EC
:00000001FF
