:07000300011000020E0000D5
:10021400C29FC29E758901758C40758A98D28CD212
:05022400A9D2AF80FE2D
:03000B000201BC33
:1001BC00C0E0C0F0C083C082C0D075D000C000C009
:1001CC0001C002C003C004C005C006C007E5107022
:1001DC0014751013050FE50FAE0E7002050E14FF0B
:1001EC0012000E80021510758C40758A98D007D0BD
:1001FC0006D005D004D003D002D001D000D0D0D08E
:08020C0082D083D0F0D0E03273
:0A022900039F250D9949411F0109AB
:04000E008E088F09C0
:10001200D3E509940FE5089427400675082775096A
:100022000FAE08AF097C037DE81201678F0A7E00DC
:100032007C037DE8120155C3E5099FFFE5089EFE9A
:100042007C007D641201678F0BAF0A7E007C037D0A
:10005200E8120155C3E5099FFBE5089EFAAF0B7E46
:10006200007C007D64120155C3EB9FFFEA9EFE7D7A
:100072000A1201678F0CE50A75F0E8A4FFC3E509CF
:100082009FFFE50B75F064A4FEC3EF9EFFE50C75C0
:10009200F00AA4FEC3EF9EF50DE4FF740A2FF8E602
:1000A20070040FBF03F5E4FEEEC39F50057599FF80
:1000B200800B740A2EF8E690022993F5993099FD87
:0600C200C2990EBE04E22B
:0100C8002215
:030000000200C932
:0C00C900787FE4F6D8FD7581100201106C
:10015500EF8DF0A4A8F0CF8CF0A428CE8DF0A42EBE
:02016500FE2278
:10016700BC000BBE0029EF8DF084FFADF022E4CC7C
:10017700F875F008EF2FFFEE33FEEC33FCEE9DEC45
:10018700984005FCEE9DFE0FD5F0E9E4CEFD22ED8B
:10019700F8F5F0EE8420D21CFEADF075F008EF2FD5
:1001A700FFED33FD4007985006D5F0F222C398FDC6
:0501B7000FD5F0EA2263
:1000D500020214E493A3F8E493A34003F68001F22B
:1000E50008DFF48029E493A3F85407240CC8C3332C
:1000F500C4540F4420C8834004F456800146F6DFFB
:10010500E4800B0102040810204080900003E47E87
:10011500019360BCA3FF543F30E509541FFEE493EF
:10012500A360010ECF54C025E060A840B8E493A3B6
:10013500FAE493A3F8E493A3C8C582C8CAC583CAE1
:10014500F0A3C8C582C8CAC583CADFE9DEE780BE99
:01000A0000F5
:00000001FF
