:03000000020030CB
:03000B000200D11F
:030003000201A057
:1000300012003812006F0133D200D201D2027A14BA
:10004000758901758AB0758C3CD2AFD2A9D28CD299
:10005000A8D2889001C4754028754128753028754C
:10006000313C75804C75324C75A015753315227571
:10007000B0DFE53075F00A8493F5901201D075B0C9
:10008000EFE5F093F5901201D075B07FE53175F092
:100090000A8493F5901201D075B0BFE5F093F59006
:1000A0001201D0D2B0D2B130B00530B11201CD12B0
:1000B00001CE30B00201CD75403275411E01CD1226
:1000C00001CE30B10201CD75401E754132220201D0
:1000D00099C0E0C0D0C28CC28D758AB0758C3CDAF4
:1000E000ED7A141530E530B4040930000675808AC5
:1000F00075328AB40309300006758088753288B479
:10010000020930000675808A75328AB40109300010
:10011000067580887532887014B20030005B8540A7
:100120003075804C75324C75A0157533151531E559
:1001300031B40409200106758051753251B40309A8
:10014000200106758041753241B40209200106750F
:100150008051753251B40109200106758041753214
:10016000417036B201300122753150758089753287
:100170008975A02975332921997530507580897545
:10018000328975A026753326212D85413175806110
:1001900075326175A015753315D28CD0D0D0E03290
:0D01A000C0E0C0D0C289C28CB202200208AB
:1001AD0075804975A01521BFD28CE532F580E533F8
:1001BD00F5A0D0D0D0E0323F065B4F666D7D077F56
:0C01CD006F7F057F0A7E32DEFEDFFC2221
:00000001FF
