:0404FA000019324B68
:10034800C10001216E0122EC01233F11352B203021
:10035800302E3030205345542B20303043001124A8
:1003680054483A2B20303020544C3A2B203030431C
:010378000084
:0B04C800EF1FAC0670011E4C70F62206
:10043D00E4C2B77F50FE1204C8D2B77F0E7E001201
:0B044D0004C8A2B77F147E000204C8A0
:1003E500E4FB7D08C2B7EBC313FBD2B730B70343B9
:0D03F50003807F047E001204C8DDE9AF0321
:0104020022D7
:0503C60012043D7FCC94
:0203CB00AD077C
:1003CD007B08C2B7ED1392B77F057E001204C8D229
:0703DD00B7EDC313FDDBEBDC
:0103E40022F6
:100403008F08A903AA051203C67F4E1203CBAF08B8
:0D0413001203CBAF021203CBAF010203CBEB
:10037A001203C67F441203CB7F467E001204C812C2
:10038A0003C67FBE1203CB1203E58F081203E58F63
:07039A00097B007A007908DD
:0103A1002239
:10045800C2A0D2A100D2A200E58030E70AC2A20061
:0A04680000D2A2000080F1C2A2221F
:1004A200C2A2A20792A0C2A10085088000D2A20027
:0604B200C2A20002045882
:0A04D300C207EF4408F5080204A276
:0A04DD00C207EF4404F5080204A270
:1003A200C2A2C2077508381204A2C2077508381221
:1003B20004A27F041204D3C2077508011204A27FAB
:0403C200020204DD52
:10042000ED700AC207EF4480F5081204A2BD010C6A
:0D043000C207EF24C04480F5081204A22288
:10048B00120472FF6010D207F5081204A27401293E
:07049B00F9E43AFA80EA22BD
:0604EE0012042002048B41
:0704E700AE071FEE70FA22C0
:0604F400EF25E0FF0F22DE
:0F04B8007590F0AF90EF64F06003D20022C200A5
:0104C7002212
:1002670079017CFE7BEF1204B8300046C2007FC8DC
:100277001204E71204B8300039E4FE8C90E4FAAFB8
:10028700905307F0EB54F0F508B5070D3000051251
:1002970004B880F8AD01AF052209AF031204F4AB2F
:1002A700070ABA04DA7BEFAF041204F4AC070EBEF8
:0402B70004C9AF05C2
:0102BB002220
:10030B00EFD3947F400975402D6307FF0F80037572
:10031B00402BEF75F064842430F541B43003754104
:10032B00FEEF75F06484AEF0EE75F00A842430F5C0
:0D033B0042EE75F00A84E5F02430F543220F
:1001EE00EFD3947F400975272D6307FF0F800375AA
:1001FE00272BEDD3947F4009752F2DEDF404FD8050
:10020E0003752F2BEF75F064842430F528B430037A
:10021E007528FEEF75F06484AEF0EE75F00A842456
:10022E0030F529EE75F00A84E5F02430F52AED75E7
:10023E00F064842430F530B430037530FEED75F083
:10024E006484AFF0EF75F00A842430F531EF75F069
:09025E000A84E5F02430F5322297
:1000BE00AB48AA49A94A120472F54B7401254AF5B8
:1000CE004AE43549F549FAA94A120472F54CD3941B
:1000DE0007401775352D634CFF634BFFE54B04F559
:1000EE004BD394FF4007054C800375352BE54CC46C
:1000FE0054F0F54C534C70AF4BEFC4540FFF5307F5
:10010E000FEF424CE54C75F064842430F536B43074
:10011E00037536FEE54C75F06484AFF0EF75F00AAA
:10012E00842430F537EF75F00A84E5F02430F53885
:10013E00534B0CE54B1313543FF54B9004FA93FEBF
:10014E0075F00A842430F53AEE75F00A84E5F02451
:03015E0030F53B3E
:01016100227B
:10000300EF24FE601524FD601514601614601714A8
:10001300601824077016D2028012D206800EB20531
:10002300800AB2038006B2048002B20120050A20CE
:100033000307200404C202C206300528200325203A
:10004300042230020E0521C202E521C39464400359
:1000530075211430060E1521C206E521D3941450E0
:100063000375211420052830032520042230020EB5
:100073000522C202E522C394144003E4F5223006AC
:100083000E1522C206E522D394005003E4F5222084
:10009300052820032530042230020E0546C202E55E
:1000A30046C3943C4003E4F54630060E1546C206AB
:0B00B300E546D394005003E4F546221C
:1002BC00AB23AD22AF211204037F641204E71203B7
:1002CC007A8B488A49894A1200BEAF4612030BAD9D
:1002DC0022AF211201EE1203A27B007A007924E4F2
:1002EC00FDFF1204EE7A0079350DE4FF1204EE12D4
:0F02FC0004B83000C91202678F4712000380BF99
:0300000002016298
:0C016200787FE4F6D8FD75814C0201A9FD
:10047200BB010689828A83E0225002E722BBFE0288
:09048200E32289828A83E49322BB
:10016E000202BCE493A3F8E493A34003F68001F2E9
:10017E0008DFF48029E493A3F85407240CC8C33392
:10018E00C4540F4420C8834004F456800146F6DF61
:10019E00E4800B0102040810204080900348E47EA6
:1001AE00019360BCA3FF543F30E509541FFEE49356
:1001BE00A360010ECF54C025E060A840B8E493A31D
:1001CE00FAE493A3F8E493A3C8C582C8CAC583CA48
:1001DE00F0A3C8C582C8CAC583CADFE9DEE780BE00
:010379000083
:00000001FF
