:03021F00011200C9
:1001F40075A00FC29FC29EE4FFFE120003E5A05447
:100204000F640F60F8E512B4FA0D1201B17E00120A
:0B0214000003E4F51280E6051280E212
:0A022900039F250D9949411F0109AB
:040003008E088F09CB
:10000700D3E509940FE50894274006750827750975
:100017000FAE08AF097C037DE812015C8F0A7E00F2
:100027007C037DE812014AC3E5099FFFE5089EFEB0
:100037007C007D6412015C8F0BAF0A7E007C037D20
:10004700E812014AC3E5099FFBE5089EFAAF0B7E5C
:10005700007C007D6412014AC3EB9FFFEA9EFE7D90
:100067000A12015C8F0CE50A75F0E8A4FFC3E509E5
:100077009FFFE50B75F064A4FEC3EF9EFFE50C75CB
:10008700F00AA4FEC3EF9EF50DE4FF740A2FF8E60D
:1000970070040FBF03F5E4FEEEC39F50057599FF8B
:1000A700800B740A2EF8E690022993F5993099FD92
:0600B700C2990EBE04E236
:0100BD002220
:06022200040EEFDFBF7FB8
:1001B100E4FFFE740E2EF8E6F5A0E5A0540FF964F5
:1001C1000F6024E924F9601724FC600F24FE600706
:1001D1001470107F0A80147F1480107F1E800C7FA2
:1001E1002880087F3280040EBE04C875A00FEF2E50
:0201F10004FF09
:0101F30022E9
:030000000200BE3D
:0C00BE00787FE4F6D8FD75811202010580
:10014A00EF8DF0A4A8F0CF8CF0A428CE8DF0A42EC9
:02015A00FE2283
:10015C00BC000BBE0029EF8DF084FFADF022E4CC87
:10016C00F875F008EF2FFFEE33FEEC33FCEE9DEC50
:10017C00984005FCEE9DFE0FD5F0E9E4CEFD22ED96
:10018C00F8F5F0EE8420D21CFEADF075F008EF2FE0
:10019C00FFED33FD4007985006D5F0F222C398FDD1
:0501AC000FD5F0EA226E
:1000CA000201F4E493A3F8E493A34003F68001F257
:1000DA0008DFF48029E493A3F85407240CC8C33337
:1000EA00C4540F4420C8834004F456800146F6DF06
:1000FA00E4800B010204081020408090021FE47E75
:10010A00019360BCA3FF543F30E509541FFEE493FA
:10011A00A360010ECF54C025E060A840B8E493A3C1
:10012A00FAE493A3F8E493A3C8C582C8CAC583CAEC
:10013A00F0A3C8C582C8CAC583CADFE9DEE780BEA4
:0102280000D5
:00000001FF
