:0200000099C0A5
:0200080066C7C9
:140026009201EF00C30301020408102040800000010002007C
:14003A0001000300010002000100040001000200010003009F
:14004E0001000200010005000100020001000300010002008B
:14006200010004000100020001000300010002000100060074
:14007600010002000100030001000200010004000100020064
:14008A0001000300010002000100050001000200010003004E
:14009E0001000200010004000100020001000300010002003C
:1400B200010007000100020001000300010002000100040023
:1400C600010002000100030001000200010005000100020013
:1400DA000100030001000200010004000100020001000300FF
:1400EE000100020001000600010002000100030001000200EA
:140102000100040001000200010003000100020001000500D4
:140116000100020001000300010002000100040001000200C3
:14012A0001000300010002000100CFE5D4E0CDBFDEBFC05117
:14013E00D0400AEA08830024E0E6F0E012E0EB33F10711F05B
:140152000192FBCF0083E4E3F1E0A0E6B0E011E0E433F1070B
:1401660021F0C89531960D92F9CF19D0FFCF22242AB82BB827
:14017A0086E880BD83E389B920BC88E08AB9089589B78F7BB0
:14018E0089BF222425BC24BC84E085BD89B7806489BF7894F0
:1401A2000895239716D187E08A8387E291E08883998322274D
:1401B600332708E210E0F2D488E08A8383EC90E088839983C0
:1401CA002227332706E210E0E7D4DADFCEDF96D223960895C7
:1401DE0003D75801219782B38C6182BB81B3837E81BB959A23
:1401F2008D9A8AD581E08093280180B38C7188838C3159F590
:1402060095988C2D8C3031F481E020902801282620922801BA
:14021A00209028012220F1F48C2D883159F4809129018F5FE8
:14022E00282E209229018C3319F42224209229018C2D84312E
:1402420069F480912A018F5F282E20922A018C3329F42224CC
:1402560020922A0101C0959AC8801AE00091290185D60093DC
:14026A002C011AE00091290181D600932D011AE000912A01D0
:14027E0079D600932E011AE000912A0175D600932F01AE2CBD
:14029200BB24AA2011F4BB2071F0C5018130E0E09E0799F009
:1402A6008230E0E09E07C9F08330E0E09E07F9F027C08CE21E
:1402BA0091E0EE2DFF27E80FF91F0081006725D51DC08CE242
:1402CE0091E0EE2DFF27E80FF91F0081006B1BD513C08CE23E
:1402E20091E0EE2DFF27E80FF91F0081006D11D509C08CE23C
:1402F60091E0EE2DFF27E80FF91F0081006E07D58E2D8F5FBF
:14030A00282EE82E83E0821508F4EE2402E010E0C0D46FCFC7
:14031E0021965AD608955AD6580105E010E0B7D401E010E08D
:1403320072D60093290102E010E06DD600932A0180912801A5
:14034600813059F5809129018F5F282E209229018C33C9F4CD
:14035A0022242092290180912A018F5F282E20922A018C3351
:14036E0071F4222420922A0180912B018F5F282E20922B0194
:14038200883119F4222420922B012091290101E010E04AD6B1
:1403960020912A0102E010E045D60AE024D600912F01005D88
:1403AA0020D600912E01005D1CD60AE31AD600912D01005D41
:1403BE0016D600912C01005D12D604EF11E067D4B9CFF4D5CC
:1403D200089502D6239780E090E0A0E0B0E09093EB018093E6
:1403E600EA01B093ED01A093EC01222420921E0220921D02DE
:1403FA00209216022092170280E090E0A0E0B0E09093200235
:14040E0080931F02B0932202A093210280E090E0A0E0B0E009
:140422009093360280933502B0933802A093370220921A026A
:14043600AA24BB240AC088E192E0F501E80FF91F2224208273
:14044A00C50101965C01C5018230E0E09E0788F32224209294
:14045E001C0220921B023324309211022092100230921502D4
:140472002092140230920F0220920E02AA24BB2410C002E0BA
:1404860010E0950187D5F8018EEE91E0E80FF91F22243324EE
:14049A0020823182C50101965C01C5018031E0E09E0758F318
:1404AE00AA24BB2419C095012F5F3F4F0EE010E06DD51801C9
:1404C20081E391E0280E391E0EE010E0950164D5F80183E3B8
:1404D60091E0E80FF91F20823182C50101965C01C501853008
:1404EA00E0E09E0710F32224332430927A012092790181E32C
:1404FE0091E09093130280931202AA24BB2419C095012F5F70
:140512003F4F08E010E040D5180183E292E0280E391E08E0F5
:1405260010E0950137D5F80183E292E0E80FF91F20823182FB
:14053A00C50101965C01C5018130E0E09E0710F32224332477
:14054E0030922C0220922B0283E292E0909334028093330252
:140562008FE08A8388EE91E088839983222733270AE210E07C
:1405760015D323961FD508950A930FB7F8940F930991809103
:14058A001E028150282E20921E0240901D02242809F04FC001
:14059E0084E390E0E0911A02FF27E80FF91FE491E093E901DE
:1405B20088E192E0FF27E80FF91FE081FF2784E390E0E80FD0
:1405C600F91F249033244090E9015524440C551C440C551C49
:1405DA00440C551C420C531C40921B0220901C02421439F152
:1405EE00242C82E0829DF0018EEE91E0E80FF91F20803180EA
:14060200309211022092100281E090E0A0E0B0E04090370261
:14061600509038022090350230903602280E391E4A1E5B1E69
:14062A00309236022092350250923802409237020FD40A9332
:14063E000F910FBF09910895C9D40A930FB7F8940F9309913B
:1406520020901E0230901D02322809F04DC084E390E0E0913D
:140666001A02FF27E80FF91FA49088E192E0EA2DFF27E80FEC
:14067A00F91FE081FF2784E390E0E80FF91F249033244A2C66
:14068E005524440C551C440C551C440C551C420C531C40920D
:1406A2001B0220901C02421439F1242C82E0829DF0018EEE9B
:1406B60091E0E80FF91F20803180309211022092100281E065
:1406CA0090E0A0E0B0E04090370250903802209035023090D2
:1406DE003602280E391E4A1E5B1E309236022092350250929D
:1406F20038024092370253D30A930F910FBF09915BD4089518
:140706006CD420901702222009F038C084E390E0E0911A023F
:14071A00FF27E80FF91FA49088E192E0EA2DFF27E80FF91F3B
:14072E00E081FF2784E390E0E80FF91FC4902C2C33244A2CD1
:140742005524440C551C440C551C440C551C420C531C409258
:140756001B02242C20921C0282E0829DF0018EEE91E0E80FFC
:14076A00F91F208031803092110220921002309215022092EE
:14077E001402DFD227D408950A930FB7F8940F93099181E07C
:1407920090E0A0E0B0E0409021025090220220901F0230904B
:1407A6002002280E391E4A1E5B1E3092200220921F02509216
:1407BA002202409221020A930F910FBF0991DECF089506D449
:1407CE000A930FB7F8940F930991A0901202B0901302AA2089
:1407E20019F4BB2009F473C0F5012280338030921302209217
:1407F60012020A930F910FBF0991208331830187222420866B
:14080A00332426823782202E26942694269423868CE290E01F
:14081E00E385FF27E80FF91FE491D5011D96EC93802F877006
:14083200F50182878CE290E0E285FF27E80FF91FE491D501EE
:140846001C96EC930A930FB7F8940F93099182E0809FF001D0
:14085A008EEE91E0E80FF91FA082B18220900E0230900F02A8
:14086E00F50122823382222433242482358220900E023090AD
:140882000F02222011F4332031F0E0910E02F0910F02A4825D
:14089600B582B0920F02A0920E02F501258430901A023228AD
:1408AA0030921A0288E192E023843324280E391E4484F1013C
:1408BE005080542850820A930F910FBF0991002705C00A93DA
:1408D2000F910FBF099106E46FD3089500910E0210910F02EE
:1408E6003BC00A930FB7F8940F930991F80126803780222040
:1408FA0019F4332009F427C0C8010696FC0180819181019799
:14090E002C014082518280308907D9F4F801208423FC12C078
:14092200258430901A02322830921A0288E192E0238433242B
:14093600280E391E4484F10150805428508205C081E090E0B2
:14094A00F80186839783F801028113810A930F910FBF0991C8
:14095E00F80181858F3009F0C0CF0A930FB7F8940F93099114
:1409720081E090E0A0E0B0E04090EC015090ED012090EA016A
:140986003090EB01280E391E4A1E5B1E3092EB012092EA01F8
:14099A005092ED014092EC010A930F910FBF099108951CD389
:1409AE00AE80BF808E819F8184549040F801C590D4901C0122
:1409C2000197F101C0821C0101977C012601452C5524F10120
:1409D60040821501C10101974424F10140821C0101975C01AD
:1409EA0081E0F10180831501C10101975C0182E0F10180837F
:1409FE001501C10101975C0183E0F10180831501C101019750
:140A12005C0184E0F10180831501C10101975C0185E0F101F6
:140A260080831501C10101975C0186E0F10180831501C101B9
:140A3A0001975C0187E0F10180831501C10101975C0188E022
:140A4E00F10180831501C10101975C0189E0F101808315015E
:140A6200C10101975C0180E1F10180831501C10101975C01A6
:140A760081E1F10180831501C10101975C0182E1F1018083F0
:140A8A001501C10101975C0183E1F10180831501C1010197C2
:140A9E005C0184E1F10180831501C10101975C0185E1F10168
:140AB200808369011501C1010197F101C0821C010197260143
:140AC600452C5524F10140821C0101975C0188E1F10180830E
:140ADA001501C10101975C0189E1F10180831501C10101976C
:140AEE005C0180E2F10180831501C10101975C0181E2F1011E
:140B020080831501C10101975C0182E2F10180831501C101DE
:140B160001975C0183E2F10180831501C10101975C0184E249
:140B2A00F10180831501C10101975C0185E2F1018083150183
:140B3E00C10101975C0186E2F10180831501C10101975C01C2
:140B520087E2F10180831501C10101975C0180E3F10180830C
:140B66001501C10101975C0181E3F10180831501C1010197E5
:140B7A005C0180E8F101808367011501C10101975C01260151
:140B8E00452C5524F1014082FC01C082082F192F1BD208956D
:140BA20021D2790158012A97CA888FE08C1510F40AE270C036
:140BB6000A930FB7F8940F93099182E08C9DF0018EEE91E097
:140BCA00E80FF91F20803180222009F05AC0332009F057C0FF
:140BDE0082E08C9DF0018EEE91E0E80FF91F81E090E08083B7
:140BF20091830A930F910FBF0991222433242A823B820888A0
:140C060019880882198297018501CDDE5801222433242886A7
:140C1A0039862E823F822C823D822A823B82288239829501C5
:140C2E000C2DCDDDA02E0023A1F40A930FB7F8940F9309911E
:140C4200809116028F5F809316020A930F910FBF0991209007
:140C560017022220B1F0F4DC14C00A930FB7F8940F930991BF
:140C6A0082E08C9DF0018EEE91E0E80FF91F222433242082BF
:140C7E0031820A930F910FBF09910A2D05C00A930F910FBF03
:140C9200099108E22A969ED108959ED15801AA2019F4BB2084
:140CA60009F42EC00A930FB7F8940F93099188E192E0E091D8
:140CBA001402F091150223843324280E391E44844094F1015F
:140CCE0050805420452C4082552059F4E0911402F0911502BA
:140CE2002584209430901A02322030921A02E0911402F0918D
:140CF6001502A682B7820A930F910FBF0991A0DC59D108958A
:140D0A00B89A81B3806C81BB089565D1A02EC0989698CC2410
:140D1E000AC0A7FE02C0979A01C09798AA0C969A000096985B
:140D3200C3948C2D883098F3C09A4AD1089500911702039506
:140D460000931702E0911002F0911102C191D19109910DBFBC
:140D5A0009910EBF09910FBFF991E991B991A99199918991EA
:140D6E0079916991599149913991299119910991F990E990DF
:140D8200D990C990B990A99099908990799069905990499013
:140D9600399029901990099008950A921A922A923A924A923C
:140DAA005A926A927A928A929A92AA92BA92CA92DA92EA922D
:140DBE00FA920A931A932A933A934A935A936A937A938A93D0
:140DD2009A93AA93BA93EA93FA930FB70A930EB70A930DB7C3
:140DE6000A93E0911402F0911502C193D19300911B02009344
:140DFA001C02E0911002F0911102E0931402F0931502C1913B
:140E0E00D19109910DBF09910EBF09910FBFF991E991B991EB
:140E2200A99199918991799169915991499139912991199148
:140E36000991F990E990D990C990B990A9909990899079907D
:140E4A0069905990499039902990199009900895EDB7FEB71F
:140E5E003596FA93EA93E0911402F0911502C193D193009143
:140E72001B0200931C02E0911002F0911102E0931402F0937B
:140E86001502C191D19109910DBF09910EBF09910FBFF991CE
:140E9A00E991B991A991999189917991699159914991399170
:140EAE00299119910991F990E990D990C990B990A9909990C3
:140EC2008990799069905990499039902990199009900895DE
:140ED60000000A921A922A923A924A925A926A927A928A924C
:140EEA009A92AA92BA92CA92DA92EA92FA920A931A932A9369
:140EFE003A934A935A936A937A938A939A93AA93BA93EA93EE
:140F1200FA930FB700680A9306E004BD00911E0203950093F0
:140F26001E020E946F040E94BF0209910FBFF991E991B99169
:140F3A00A9919991899179916991599149913991299119912F
:140F4E000991F990E990D990C990B990A99099908990799064
:140F620069905990499039902990199009900895689401C0A2
:140F7600E8942A93FA92FF2428E0000FFF1CF11610F0F11A3B
:140F8A0003952A95C1F70EF40F2DF990299108950A921A92DE
:140F9E008A939A93029FC001129F900D039F900D8C0199914F
:140FB2008991199009900895E4E0A990B990E2FD0895C99017
:140FC600D990E3FD0895E990F9900895E8E0F3CFEE27F1CF33
:140FDA00BA92AA920895DA92CA92FACFFA92EA92FACFF6DFA7
:140FEE00A02E2090390230903A02222011F4332029F08A2DD0
:141002008A3011F40DE0F1DF5D9BFECFACB80A2D1127D2DF15
:141016000895E199FECF10933F0000933E00E09A0DB3089558
:14102A00D7DFE199FECF10933F0000933E002DBBAFB6F89429
:0E103E00E29AE19AAFBE00271127B8DF0895AD
:00000001FF
