:0300000002000EED
:0C000E00787FE4F6D8FD75817C0204C206
:10045700758921758CF6E4F58A758DFD758BFDF52B
:1004670087759850F5B8758850C299C298D29C750F
:07047700A812D2ACD28E22C4
:1004A400E4F579F51FF519751AFF757401751EFFCA
:0D04B400F54DFF74202FF8A6070FBF06F6C8
:0104C1002218
:03000B00020026CA
:10002600C0E0C0F0C083C082C0D075D010758CF619
:10003600758A000518E518C39404400675180075FE
:100046007901E54C24FD601F14602B1460371460A1
:100056004314604F2405705775A0FEAF2012035F4E
:100066008F80754C03804B75A0FDAF2112035F8F07
:1000760080754C04803C75A0FBAF2212035F8F8015
:10008600754C05802D75A0F7AF2312035F8F807521
:100096004C06801E75A0EFAF2412035F8F80754C4F
:1000A60007800F75A0DFAF2512035F8F8080007574
:1000B6004C02E590540FF51EB40F05751EFF801B0C
:1000C600E51E64076015E51E640B600FE51E640DF2
:1000D6006009E51E640E6003751EF0E57414601E6B
:1000E600047040E51EB4FF11051FE51FC3941440BC
:1000F60032757401751F008027751F008025E51E67
:10010600B51A1AF460170519E519C3941440147545
:100116007400751F00751900754D018006851E1A3D
:0E012600751900D0D0D082D083D0F0D0E03256
:05035F00C0D075D010B4
:10036400EFB40A00504D900371F828287302038FEC
:1003740002039302039702039B02039F0203A30257
:1003840003A70203AB0203AF0203B37EC080267E41
:10039400F980227EA4801E7EB0801A7E9980167E0B
:1003A4009280127E82800E7EF8800A7E8080067E95
:0703B4009080027E86AF1667
:0303BB00D0D0227D
:030023000202DEF8
:0D02DE00C0E0C0D075D000C000C006C00751
:1002EB00309832C298AF998F99AE75057574262EDA
:1002FB00F8A607EF640A600974252575F8E6B40DB6
:10030B0005751B01800FBF080C1575AF751575743E
:10031B00262FF87600309931C299E51D64017029BA
:10032B00744C2577F8E6640D6009744D2577F8E673
:10033B00B40A0B757700757600751D00800BAF77CF
:09034B000577744E2FF8E6F599D0
:0B035400D007D006D000D0D0D0E0329F
:1003BE00706C6561736520696E7075742074686504
:1003CE00206E756D62657228362064696769747374
:1003DE00293A0D0A00312E746573742020202020D6
:1003EE002020202020200D0A20322E7465737432B6
:0D03FE00202020202020202020200D0A009B
:1004C200C2AF1204571204A4D2AF757A011204DD2E
:0B04D20012040B12021D12047E80F2C7
:1004DD00E579B40111E4F5790578E578C3943240F6
:0704ED0005B294E4F578224A
:10040B00E54D64017045F54D0525E525C3940A407E
:10041B003AE4F5250524E524940A402FE4F5240558
:10042B0023E523940A4024E4F5230522E522940ACC
:10043B004019E4F5220521E521940A400EE4F5214B
:0C044B000520E520940A4003E4F520227F
:10021D007F267E08E51B640160030202DDF51BE508
:10022D007C1460600460030202DAE4F576AD7605B5
:10023D0076744E2DF8760DAD760576744E2DF876D6
:10024D000A7A00A9077B00C001AF06A907A8017CA7
:10025D00007D00D001120200E4FF74082FF8E6249F
:10026D00D0FE74202FF8A6060FBF06EEE4F57775C5
:10027D001D01F57C3099FDAF770577744E2FF8E6AB
:10028D00F5998049E4F576AF760576744E2FF876BC
:10029D0067AF760576744E2FF8766FAF7605767468
:1002AD004E2FF8766FAF760576744E2FF87664AFD5
:1002BD00760576744E2FF8760DAF760576744E2F43
:1002CD00F8760AE4F577751D01F57CD299E4F5759C
:0102DD0022FE
:10047E00E57A6401701FF57A7E037FBE7D4EAA0673
:10048E00A9077BFFA805FCFD120200E4F577751D98
:05049E0001F57CD2997C
:0104A3002236
:10013400E709F60870FA8046E709F20870FA803E8B
:1001440088828C83E709F0A370FA807EE309F608BD
:1001540070FA8076E309F20870FA806E88828C83E4
:10016400E309F0A370FA806289828A83E0A3F60827
:1001740070FA805689828A83E0A3F20870FA804A72
:1001840080D280FA80C680D4806580F2803180106D
:1001940080A680EA809A80A880DA80E280CA8031D2
:1001A40089828A83ECFAE493A3C8C582C8CCC58348
:1001B400CCF0A3C8C582C8CCC583CC70E9800D89B6
:1001C400828A83E493A3F60870F9ECFAA9F0EDFBB4
:1001D4002289828A83ECFAE0A3C8C582C8CCC5838D
:1001E400CCF0A3C8C582C8CCC583CC70EA80DD89B5
:1001F400828A83E493A3F20870F980CE88F0ED2418
:1002040002B4040050C4F582EB2402B4040050BAD2
:0902140023234582239001847329
:00000001FF
