:03011300010800E0
:10010000EF75F00A84FEEF75F00A84EEC454F02512
:02011000F0FFFE
:0101120022CA
:050003001201008F90C6
:0100080022D5
:03000B000200C828
:1000C800C0E0C0D0C28C758A00758CDC0508E508D4
:0C00D800B46402D200D28CD0D0D0E03250
:1000E400758921E4F58A758CDC758DFA758BFA7542
:0C00F4009850758780D28ED2A9D2AF221E
:10009A001200E430980F859909AF09120003E4F5BC
:1000AA0008D28CC2983000EBE4F508C2001509AFFB
:0E00BA0009120003E509B4A5DAE4F50980D5C2
:0300000002000EED
:0C000E00787FE4F6D8FD758120020055D3
:10001A0002009AE493A3F8E493A34003F68001F262
:10002A0008DFF48029E493A3F85407240CC8C333E7
:10003A00C4540F4420C8834004F456800146F6DFB6
:10004A00E4800B0102040810204080900113E47E32
:10005A00019360BCA3FF543F30E509541FFEE493AB
:10006A00A360010ECF54C025E060A840B8E493A372
:10007A00FAE493A3F8E493A3C8C582C8CAC583CA9D
:10008A00F0A3C8C582C8CAC583CADFE9DEE780BE55
:0101160000E8
:00000001FF
