:10000E0053503A2038302E630050563A006F662017
:04001E003235350042
:0D031500C293D29400D29500C295AF802211
:1002FF00C295A2089293C2940085238000D29500E4
:06030F00C2950002031577
:0A034500C208EF4408F5230202FF8E
:0A034F00C208EF4404F5230202FF88
:10026200C295C2087523381202FFC20875233812DC
:1002720002FF7F04120345C2087523011202FF7FA9
:040282000202034F22
:1002C900AE07ED700AC208EE4480F5231202FFBDA5
:0F02D900010CC208EE24C04480F5231202FF225C
:1002E800120104FF6010D208F5231202FF740129DD
:0702F800F9E43AFA80EA2262
:0A033A00E4FEEEC39F50030E80F8AE
:010344002296
:0C032200D2917F0112033AC29102033A0B
:10028600E4F520C2921203222090FDE4FD1203221F
:10029600E52025E0F520A29092000DBD08EFD29250
:0202A600AF2087
:0102A8002233
:10023500D2AFD2A9D2B9758C3C758AB0D28CC29F87
:10024500D29ED29CC299C298E4F587758DF3758BC1
:0D025500F3758921D2AFC2ABD2ACD28E229C
:0A0026008E238F248B258A2689275C
:100030007C277D1012012F7C007D0A12012F8D2953
:10004000AE23AF247C037DE812012F7C007D0A12D1
:10005000012F8D2AAE23AF247C007D6412012F7CFA
:10006000007D0A12012F8D2BAE23AF247C007D0A68
:1000700012012F7C007D0A12012F8D2CAE23AF249C
:100080007C007D0A12012F8D2DE4FF74292FF87456
:100090003026F60FBF05F4E4FF74292FF8E6B430DC
:1000A0000BD3EF6480948350030F80EDC3740595E8
:1000B00028FEC3EF6480F8EE6480985019AB25AA3F
:1000C00026A927742012011D74012527F527E43580
:1000D00026F5260E80DCC3EF64809485501C7429BD
:1000E0002FF8E6AB25AA26A92712011D74012527A2
:1000F000F527E43526F5260F80DCAB25AA26A927AF
:04010000E402011DF7
:1002A900E4FDFCC3ED9FEC9E5015E4FBFA0BBB008B
:0F02B900010AEB64784A70F50DBD00010C80E47A
:0102C8002213
:10018400120235120262E4FDFF1202C97BFF7A00FB
:10019400790E1202E80DE4FF1202C97A00791712EF
:1001A40002E8C299850B9975A0643099FDC299AF94
:1001B4000B7E007B007A00790D7528051200267DE0
:1001C400017F031202C97B007A00790D1202E87BD9
:1001D400FF7A00791B1202E87F647E001202A98074
:0101E400C159
:03000B000201E50A
:1001E500C0E0C0F0C0D075D000C005C006C007751E
:1001F5008C3C758AB0050CE50CB41427750C0012FF
:1002050002868F0BE50B75F06484F508E50B75F038
:100215006484AFF0EF75F00A84F509EF75F00A8490
:1002250085F00AD007D006D005D0D0D0F0D0E03286
:03002300020003D5
:05000300859922C2985E
:0100080032C5
:0300000002032ECA
:0C032E00787FE4F6D8FD75812D02018473
:10010400BB010689828A83E0225002E722BBFE02F9
:09011400E32289828A83E493222C
:10011D00BB010689828A83F0225002F722BBFE01C1
:02012D00F322BB
:10012F00BC000BBE0029EF8DF084FFADF022E4CCB4
:10013F00F875F008EF2FFFEE33FEEC33FCEE9DEC7D
:10014F00984005FCEE9DFE0FD5F0E9E4CEFD22EDC3
:10015F00F8F5F0EE8420D21CFEADF075F008EF2F0D
:10016F00FFED33FD4007985006D5F0F222C398FDFE
:05017F000FD5F0EA229B
:00000001FF
