:020000002100DD
:02000B00216A68
:10010000758160753002753201753115758902751A
:100110008A38758C38D2A9D2AFD28C309105309202
:100120002380F820910280FBE530B5310280ECE5B8
:100130003004B53106C28CD2908005B40202D28C54
:10014000053080D720920280FBE530B4010280CBDD
:10015000E53085313314B40106C28CC29080071596
:1001600033B53302D28C153080B1C0D0C0E0053237
:10017000E532B53002C290B53105753201D290D06A
:04018000E0D0D032C9
:00000001FF
