:0300000002056E88
:0C056E00787FE4F6D8FD75810D0201AB2A
:10000300000400061FFC00040004FFF802080208B5
:100013000000FFFC0202040208021802000E0000A6
:100023002410246025807FFFC50044C204827E9291
:100033004292429242FE429242B2FE9640820000B7
:100043000002000C3FF02000288028802882AA812B
:1000530069FE2A802C8028A068C020800000000050
:1000630000000FFF08420842084208420842FFFE10
:10007300084208420842084208421FFF08000000E5
:100083005E2252AC7EA152BF7EA8D2A55E2200049E
:100093007FF8466041804660FFFC4002000E00008E
:1000A300082030202040AA40AA90AA90A154FE32F2
:1000B300A115AA98AA90AA40204028203020000029
:1000C30004440CE63544C6480C2800403FFF249006
:1000D300A4FE6490249024FE7C9121FF0080000004
:1000E30010006010401040105F9044904490449082
:1000F300449044B24C91448241FC50806000000023
:1001030000027FFC04800480FCFF040400183FE22B
:10011300240425C824304468C5844606000400002E
:10012300082008C00B00FFFF090008822C04238865
:1001330020502020205021883E04000600040000A7
:10014300000200043FF8244024404442C7E440082E
:100153003FF0220022004200C3FF460002000000DD
:10016300202020402080210027FF3C90E490249011
:100173002490249224912FFE24006000200000008C
:100183007C828A847A006C6C00000042FE0200E4E8
:10019300A2A2A29C62929294786C9292926C808EAC
:0801A30090A0C0848292B2CC4E
:05057A00D2B0C2B02266
:06052D00AE05AD07AF06AC
:1005330075A0FFBF010675B01330A7FDEF700675F8
:06054300B00B30A7FD2201
:1004E000FFE4FD1204F0E50AC454F02440FFE4FDEB
:1004F00012052DBE010375B010EE700675B00875BB
:07050000B0088DA002057A8E
:1005490012052DBE010375B014EE700375B00C8D44
:04055900A002057A7D
:10039600E4FD7F3F1204F0E4FD7FC01204F0E4FDAB
:1003A6007FB81204F0E4FD7F401204F07D017F3F28
:1003B6001204F07D017FC01204F07D017FB81204A3
:1003C600F07D017F401204F0E4FBFAE4FDFF120524
:1003D600490BBB00010AE4B503F1EAB401EDE4FD03
:1003E6007FBC1204F0E4FD7F481204F0E4FAFBE45B
:1003F600FDFF1205490BBB00010AE4B503F1EAB49F
:1004060001EDE4FAFB7D01E4FF1205490BBB000197
:100416000AE4B503F0EAB401EC7D017FBC1204F0F6
:100426007D017F481204F0E4FAFB7D01E4FF12052A
:0E043600490BBB00010AE4B503F0EAB401EC87
:010444002295
:0F050700AB0BAA0CA90D8C827583001204B3FFF5
:10051600E4FDEE25E0FEEF54014206EFA2E713FFED
:060526000DBD08EEAF065A
:01052C0022AC
:0402E5007BFFE4FFB8
:0A02E9008F098D0A8B0B8A0C890D1A
:1002F300C3E50A64809484501DE50925E024B812FF
:1003030004E0E4FCECC394205037120507E4FD122B
:1003130005490C0C80EEE50925E024B8FF7D0112A8
:1003230004F0E50AC454F0FF7D011204F0E4FCEC90
:10033300C39420500C1205077D011205490C0C8053
:10034300EEC3E50A64809484501DE50925E024B9D1
:100353001204E07C01ECC394205037120507E4FD3E
:100363001205490C0C80EEE50925E024B9FF7D0157
:100373001204F0E50AC454F0FF7D011204F07C017D
:10038300ECC39420500C1205077D011205490C0C97
:0203930080EEFA
:010395002245
:080445007BFF7A0179837F043B
:0A044D008F098D0A8B0B8A0C890DB4
:10045700C3E50A648094885028E50924B8FFE4FDC1
:100467001204F0E50A75F008A41204EBE4FCAB0BE8
:10047700AA0CA90D12050DE4FD1205490CBC05EEE9
:1004870022E50924B8FF7D011204F0E50A75F0089A
:10049700A4FF7D011204F0E4FCAB0BAA0CA90D121A
:0B04A700050D7D011205490CBC05EE9F
:0104B2002227
:10055D00E4FEEEC39F5009E4FD0DBDC8FC0E80F214
:01056D00226B
:1001AB001203967BFF7A007903E4FDFF1202E97AD2
:1001BB000079237D011202E57A0079437D02120258
:1001CB00E57BFF7A0079637D03E4FF1202E97BFF95
:1001DB007A0079837D04E4FF1202E97BFF7A0079D0
:1001EB00A37D05E4FF1202E97BFF7A0079C37D064C
:1001FB00E4FF1202E97BFF7A0079E37D07E4FF124B
:10020B0002E97BFF7A0179037D027F031202E97B0E
:10021B00FF7A0179237D037F031202E97BFF7A01C9
:10022B0079437D047F031202E97BFF7A0179637DB9
:10023B00057F031202E97D021204457D031204457A
:10024B007BFF7A0179887D047F0412044D7BFF7A52
:10025B0001798D7D057F0412044D7BFF7A01799224
:10026B007D067F0412044D7BFF7A0179977D077F12
:10027B000412044D7BFF7A01799C7D087F041204E4
:10028B004D7BFF7A0179A17D097F0412044D7BFF21
:10029B007A0179A67D0A7F0412044D7BFF7A0179DE
:1002AB00927D0B7F0412044D7BFF7A0179A67D0CA6
:1002BB007F0412044D7FC812055DE50824C0FFE4DE
:1002CB00FD1204F0E50824C0FF7D011204F00508BF
:0A02DB00E508B440E0E4F50880DB1C
:1004B300BB010CE58229F582E5833AF583E02250FE
:1004C30006E92582F8E622BBFE06E92582F8E22248
:0D04D300E58229F582E5833AF583E4932262
:00000001FF
