:03000000020014E7
:10000B000520758CD8758AEF32758150758CFF750C
:10001B008AFF75890175A8820090007D7520007597
:10002B00F00000E4936033B4FF0302005400FEA31E
:10003B00E5F093FFD28C00B292EEFB120072EFB59B
:10004B0020F4752000A302002D00C28C7A0D007BDA
:10005B00FF120072DAF8A302002D007A647B001203
:10006B000072DAF9020023007C0200DCFD00DBF8F1
:10007B00220018301C1020401C10181020101C10CF
:10008B0018401C2020201C2018202080FF20301C12
:10009B0010182015201C202020264020202B202645
:1000AB002020203080FF20201C101810202026201C
:1000BB002B2030202B4020201C1018102020262015
:1000CB002B2030202B4020301C10182015201C20FA
:1000DB002020264020202B2026202020308020305E
:1000EB001C1020101C10202026202B2030202B40F1
:1000FB0020151F0520101C10202026202B2030201F
:10010B002B4020301C10182015201C2020202640AE
:10011B0020202B2026202020303020301C1018408F
:10012B001C202020264013601820154013401880F7
:01013B0000C3
:00000001FF
