:040000000C94340028
:1400540041546D656761313620756172742054657374210045
:14006800CFE5D4E0CDBFDEBFC051D0400AEA08830024E4E764
:14007C00F0E010E0E637F10711F00192FBCF0083E4E5F0E021
:14009000A0E6B0E010E0E836F10721F0C89531960D92F9CFA4
:1400A4000E948A00FFCF000008950E94AE00B80144275527C1
:1400B80003C0F7DF4F5F5F4F46175707D0F30E94A5000895DD
:1400CC000027112702C00F5F1F4F0437E4E01E07D0F308959F
:1400E0000E94AE00B8014427552703C0EFDF4F5F5F4F4617D2
:1400F4005707D0F30E94A500089522242AB82BB886E880BD3D
:1401080083E389B920BC88E18AB90895F4DF00E610E00E94CB
:14011C00DE000DE00E94C7000AE00E94C7000DC0442709C047
:14013000042F005D0E94C70008EE13E00E947000439544317A
:14014400A8F3F2CF0895E2E00C94B400FA92EA92DA92CA92C8
:14015800BA92AA927A936A935A934A930895E1E04991599115
:14016C00E0FD089569917991E1FD0895A990B990E2FD089588
:14018000C990D990E3FD0895E990F99008950E94B000402FCC
:140194002090740030907500222011F4332021F04A3011F4D4
:1401A8000DE0F1DF5D9BFECF4CB9042F11270E94B30008955F
:1401BC000E94AE00602F712F4427552709C0E62FF72F008144
:1401D0000E94C7004F5F5F4F6F5F7F4FE62FF72F208022209D
:1201E40091F70AE00E94C70001E010E00E94A500089579
:00000001FF
