:0300000002027D7C
:0C027D00787FE4F6D8FD7581290202C4E8
:10000E0060021C0A101210121002FF7F1002101252
:10001E0070141C0C1304100A904910501460084000
:10002E00002000203E2122212221222122212221D4
:10003E002239BE272221022000200020002000208D
:10004E0088008800887F4800DF1FA8109C12AC141F
:10005E00EA7F8A1289148810887F0810081408080D
:10006E00082008210821082108210821082108213B
:10007E00082108210821082108210421042002005A
:10008E0000047F041405143F7F05D504D57F750049
:10009E004300413F7F21412141217F3F412100000B
:1000AE000000FC0F00040002000180008000802090
:1000BE00FF7F80008000800080008000A000400054
:1000CE000000000000000000000000000000000022
:1000DE000000000000000000000000000000000012
:1000EE000000000000000000000000000000000002
:1000FE0000000000000000000000000000000000F2
:10010E0000000000000000000000000000000000E1
:10011E0000000000000000000000000000000000D1
:10012E0000000000000000000000000000000000C1
:10013E0000000000000000000000000000000000B1
:10014E0000000000000000000000000000000000A1
:10015E000000000000000000000000000000000091
:10016E000000000000000000000000000000000081
:10017E000000000000000000000000000000000071
:1003A00018092021222324252627101112131415A1
:0A03B000161718191A1B1C1D1E1F3A
:10018E0075280075290E750810E4F522758901751C
:10019E008CB1758AE0D2A9D2AF750810F521F5237E
:1001AE00E4F526E4F525E4F524E52625E025E0240E
:1001BE0009F8E6F5A075F020E526A4240EF582E5F3
:1001CE00F03400F58375F002E5241203CAE493F5CA
:1001DE0080852490120391E52625E025E0240AF877
:1001EE00E6F5A075F020E526A4240FF582E5F0349F
:1001FE0000F58375F002E5241203CAE493F58085B9
:10020E0024901203910524E524C39408409B752481
:10021E0008E52625E025E0240BF8E6F5A075F0208C
:10022E00E526A4240EF582E5F0340012037DE526C2
:10023E0025E025E0240CF8E6F5A075F020E526A4CF
:10024E00240FF582E5F0340012037D0524E524C366
:10025E00941040BD0525E525C3940150030201B459
:0F026E000526E526C3940650030201B10201AE36
:0E03BB00E4FFFE0FBF00010EBE03F8BFE8F521
:0103C9002211
:10037D00F58375F002E5241203CAE493F580E524B4
:04038D0024F8F590CB
:0E039100E4FFFE0FBF00010EEF64194E70F581
:01039F00223B
:03000B00020309E4
:10030900C0E0C0D0C28D758CB1758AE0E522C39476
:1003190064500405228058E50824EF601C14601E0F
:1003290014602024F36021146023146025146027CD
:10033900241370267508118021750812801C750810
:100349001380177508208012750821800D75082201
:1003590080087508238003750810752200E523B409
:1003690004057523008008052374042521F521D08F
:04037900D0D0E032CE
:1002890002018EE493A3F8E493A34003F68001F2FC
:1002990008DFF48029E493A3F85407240CC8C33376
:1002A900C4540F4420C8834004F456800146F6DF45
:1002B900E4800B01020408102040809003A0E47E32
:1002C900019360BCA3FF543F30E509541FFEE4933A
:1002D900A360010ECF54C025E060A840B8E493A301
:1002E900FAE493A3F8E493A3C8C582C8CAC583CA2C
:1002F900F0A3C8C582C8CAC583CADFE9DEE780BEE4
:0103BA000042
:0C03CA00A42582F582E5F03583F583223E
:00000001FF
