:10032000C0F9A4B0999282F88090FF2111090503C9
:0103300008C4
:10012A007BA07A8679017800AF0BAE0AAD09AC08DC
:10013A0011988F19E47B107A27F9F8AF0BAE0AAD44
:10014A0009AC081198E51975F00AA4FEC3EF9EF5EB
:10015A0018E47BE87A03F9F8AF0BAE0AAD09AC08EC
:10016A001198E51975F064A4FEC3EF9EFFE51875B2
:10017A00F00AA4FEC3EF9EF517E47B64FAF9F8AF20
:10018A000BAE0AAD09AC081198E51975F0E8A4FEA2
:10019A00C3EF9EFFE51875F064A4FEC3EF9EFFE56A
:1001AA001775F00AA4FEC3EF9EF516E47B0AFAF966
:1001BA00F8AF0BAE0AAD09AC081198E519C454F0B2
:1001CA00FEC3EF9EFFE51875F0E8A4FEC3EF9EFF9D
:1001DA00E51775F064A4FEC3EF9EFFE51675F00AF5
:1001EA00A4FEC3EF9EF515AF19E4FCFDFE7BA07AD1
:1001FA00867901F8110DC3E50B9FFFE518C454F089
:10020A00FEC3EF9EFFE51775F0E8A4FEC3EF9EFF5D
:10021A00E51675F064A4FEC3EF9EFFE51575F00AB6
:08022A00A4FEC3EF9EF51422AF
:0E033100E4FFFE0FBF00010EBE01F8BFF4F5A1
:01033F00229B
:1002CD0090032CE493F5B0900321E493F5905388BB
:1002DD00CF5389F0438901758AFF758CFFD2AFD258
:1002ED00A9D28CE4F50BF50AF509F508E4FDFC71CE
:1002FD00310DBD00010CED64014C70F3E50B2401D3
:10030D00F50BE4350AF50AE43509F509E43508F588
:03031D000880D97C
:02000B00413280
:10023200C0E0C0F0C083C082C0D075D000C000C092
:0D02420001C002C003C004C005C006C00713
:10024F00C2AF312AE4FDFCF9C374059DFF2414F8F5
:10025F00E66004A907800B0DBD00010CED64064C90
:10026F0070E6E4FBFA7C007D00E9FFD3ED9FEC9490
:10027F0000501BED90032B93F5B074142DF8E690FE
:10028F00032093F59071310DBD00010C80DB0BBB8A
:10029F0000010AEB64054A70CCD2AF758A3C758CAD
:0302AF00F7D28CF7
:1002B200D007D006D005D004D003D002D001D000A0
:0B02C200D0D0D082D083D0F0D0E0324A
:03000000020340B8
:0C034000787FE4F6D8FD7581200202CD24
:10000D00E88FF0A4CC8BF0A42CFCE98EF0A42CFC92
:10001D008AF0EDA42CFCEA8EF0A4CDA8F08BF0A410
:10002D002DCC3825F0FDE98FF0A42CCD35F0FCEB6F
:10003D008EF0A4FEA9F0EB8FF0A4CFC5F02ECD3934
:0F004D00FEE43CFCEAA42DCE35F0FDE43CFC22A1
:10005C0075F008758200EF2FFFEE33FECD33CDCC5B
:10006C0033CCC58233C5829BED9AEC99E5829840DE
:10007C000CF582EE9BFEED9AFDEC99FC0FD5F0D6BB
:10008C00E4CEFBE4CDFAE4CCF9A88222B800C1B9E5
:10009C000059BA002DEC8BF084CFCECDFCE5F0CB23
:1000AC00F97818EF2FFFEE33FEED33FDEC33FCEB5C
:1000BC0033FB10D703994004EB99FB0FD8E5E4F917
:1000CC00FA227818EF2FFFEE33FEED33FDEC33FC04
:1000DC00C933C910D7059BE99A4007EC9BFCE99AF8
:1000EC00F90FD8E0E4C9FAE4CCFB2275F010EF2F3D
:1000FC00FFEE33FEED33FDCC33CCC833C810D7073D
:10010C009BEC9AE899400AED9BFDEC9AFCE899F877
:0E011C000FD5F0DAE4CDFBE4CCFAE4C8F9220A
:00000001FF
