:0300000002155A8C
:0C155A00787FE4F6D8FD7581A70215A18A
:10171D002040282020202020202020202020202094
:10172D0020202020202020202020202020202020AC
:10173D00202020202020202020202020202020209C
:10174D00202020202020202020202020202020208C
:06175D0020202001210004
:10000E001219A41218361218E11216C01200261276
:04001E0013B080F5A6
:1015E600BBB6D3ADC4FABACDCED2BDBBC1F76D631F
:1015F600755F6368696E614073696E612E636F6DB6
:1016060061743839633538403136332E636F6D2156
:1016160000202020202020202020202020202020E4
:1016260020202020202020202020202020202020B4
:1016360020202020202020202020202020202020A4
:101646002020202020202020202020202020202094
:02165600200072
:03176300011F0063
:08000300907FF2E020E7F922F2
:1019FD00EF1FAA0670011E4A600BE4FDEDC3947D36
:051A0D0050EE0D80F712
:011A120022B1
:0F19E500E50C24B82513FF1219F4E50D2440FF7B
:0919F400120003907FF0EFF022D5
:091A5B00120003907FF1EFF0226C
:061658008F098D0AA903B1
:10165E00E4FDFCE50924B82DFF1219F4E50A244037
:10166E00FF1219F4E4FCEDFFE92FFFE433FEEFC4A3
:10167E00F8540FC868FFEEC454F048FEEC7A002F01
:10168E00FFEA3EFEE50D2F20020BF582E50C3EF53E
:10169E0083E493800EF582E50C3EF583E493FFC35D
:1016AE0074FF9FFF121A5B0CBC10BB0DED64027031
:0116BE00A289
:0116BF002208
:101836007F0A7E001219FD7F3E1219F47FB8121935
:10184600F47FC01219F47F401219F41F1219F475AF
:101856001F017BFF7A1579E6120A967FB07E041285
:0B18660019FD7BFF7A167917020A9625
:0218AC00AB058A
:1018AE00EF245FFFE434FFFE7C007D5E1214E8EB54
:1018BE00245FFDEC34FFCD2FFFED3EFEE4FD7B20DB
:1018CE00FAF9F81214FAE51FB4010122E47F10FEB2
:0218DE00FDFC0F
:0118E00022E5
:060A96008B098A0A890B9E
:100A9C00E4F50CF50DF50EF50FF510F511F512F555
:100AAC0013F514F515E50C7023E50DC394405010A7
:100ABC00E5114510700AC2B2D2B3F510F511807170
:100ACC00D2B2C2B37510007511018065E50CB40289
:100ADC001FE50DC39440500CC2B2D2B37510007513
:100AEC001102804DD2B2C2B3751000751103804152
:100AFC00E50CB4041FE50DC39440500CC2B2D2B344
:100B0C007510007511048029D2B2C2B3751000752E
:100B1C001105801DE50DC39440500CC2B2D2B375C3
:100B2C001000751106800AD2B2C2B375100075118F
:100B3C0007AB09AA0AA90B850F82850E831214999B
:100B4C007003020F4C850F82850E83121499751653
:100B5C0000F517E50F2401FFE4350E8F82F58312A3
:100B6C001499FDC290C291C292AF171218AC8F1B90
:100B7C008E1A8D198C18D3E5179480E516940050B5
:100B8C0003020DC4E4FF7E80FDFCAB1BAA1AA9195D
:100B9C00A818D31215494011E4FFFE7D01FCA818DA
:100BAC001215495004C2908057E4FFFE7D01FCAB46
:100BBC001BAA1AA919A818D3121549401A7F007E2E
:100BCC00807D017C00A818121549500BD293C29459
:100BDC00D290C291020C967F007E807D017C00AB8E
:100BEC001BAA1AA919A818D31215494018E4FFFE1C
:100BFC007D02FCA818121549500BD294C293D290C6
:100C0C00C291020CCCE4FFFE7D02FCAB1BAA1AA91C
:100C1C0019A818D312154940197F007E807D027CDB
:100C2C0000A818121549500AD294C293C290D291BE
:100C3C0080587F007E807D027C00AB1BAA1AA9190C
:100C4C00A818D31215494017E4FFFE7D03FCA81821
:100C5C00121549500AD294D293C290D2918061E479
:100C6C00FFFE7D03FCAB1BAA1AA919A818D31215F9
:100C7C004940227F007E807D037C00A81812154914
:100C8C005013D294D293D290D291C292E4851B1B72
:100C9C00851A1A803B7F007E807D037C00AB1BAAEB
:100CAC001AA919A818D3121549402BE4FFFE7D048C
:100CBC00FCA818121549501EC294D293D290D2910E
:100CCC00C292E4251BFFE51A3480FEE48F1B8E1ABA
:100CDC00F519F518800AC294C293C290C291C292BF
:100CEC00E4F512F5131219E5E4F514F515E51525DF
:100CFC001BFDE514351AFCE513C4F8540FC868FF46
:100D0C00E512C454F048FEED2FFFEC3EFEE42FF547
:100D1C008274803EF583E0FF121A5B0515E51570B1
:100D2C00020514C39410E514940040C10513E51397
:100D3C0070020512C39402E512940040A8740225B7
:100D4C000FF50FE4350EF50E7410250DF50DD3943B
:100D5C00305003020F25E51145107003020E82E599
:100D6C0011640145107003020E98E51164024510E0
:100D7C007003020EABE511640345107003020EC044
:100D8C00E511640445107003020ED3E511640545AA
:100D9C00107003020EE8E511640645107003020F93
:100DAC0001751000751107D3E50F943EE50E940004
:100DBC005003020F25020F1FC290C291D292E4F58C
:100DCC0012F5131219E5E4F514F515E513AE1278C6
:100DDC0003C333CE33CED8F9FDAC06E517C4F854B3
:100DEC000FC868FFE516C454F048FEEF2DFFEE3C2B
:100DFC00CF2515CF3514FEE42FF582747E3EF58396
:100E0C00E0FF121A5B0515E51570020514C3940872
:100E1C00E514940040B50513E51370020512C39454
:100E2C0002E5129400409C050FE50F7002050EAB15
:100E3C0009AA0AA90BF582850E83121499D3948002
:100E4C00E49400401BE50D2408FFE433FED3EF943B
:100E5C0030EE648094804004741080067408800224
:100E6C007408250DF50DE50DD394385003020F25AC
:100E7C00E5114510700ED2B2C2B3F510751101F523
:100E8C000D020F25E51164014510700BC2B2D2B3EF
:100E9C00F510751102804EE51164024510700DD2EB
:100EAC00B2C2B3F510751103F50D806DE511640335
:100EBC004510700BC2B2D2B3F5107511048026E543
:100ECC001164044510700DD2B2C2B3F51075110542
:100EDC00F50D8045E511640545107011C2B2D2B311
:100EEC00F510751106F50D050C050C802CE511643B
:100EFC00064510700DD2B2C2B3F510751107F50D81
:100F0C008017751000751107D3E50F943FE50E940B
:100F1C00004006E4F50EF50F22E50DD39430500396
:100F2C00020B3DD3E5119406E510940040067510B4
:100F3C0000751107D3E50F943EE50E9400020B3DAE
:010F4C002282
:101A1300EF1FAA0670011E4A600BE4FDEDC3947D1F
:051A230050EE0D80F7FC
:011A2800229B
:051A5100121A56D2B488
:051A5600000000002269
:0C1A3900D2B5D2B4121A56C2B5021A5629
:0C1A4500C2B5D2B4121A56D2B5021A561D
:081A2900121A397FA01219C640
:081A3100C2B5121A51C2B42221
:081A6400D2B5121A51C2B422DE
:1019C6007E08AD07C2B4121A56ED30E704D2B580D0
:0E19D60002C2B5D2B4EF25E0FDFFDEE6C2B4DA
:0119E40022E0
:10195F00E4FFFE7D08D2B5C2B4121A5130B505436B
:10196F00070180035307FEED146005EF25E0FEFF2E
:02197F00DDE5A4
:011981002243
:0217F6008D0C58
:1017F8008B0E8A0F8910E4FCECC3950D502F121A3A
:1018080029E50C2CFF1219C6121A31AB0EAA0FA922
:10181800108C82758300121499FF1219C6121A319E
:0D182800121A457F147E00121A130C80CB9B
:011835002290
:0217B0008D0C9E
:1017B2008B0E8A0F8910E4FCECC3950D5035121A7A
:1017C20029E50C2CFF1219C6121A31121A397FA1FF
:1017D2001219C6121A3112195FAB0EAA0FA9108C78
:1017E20082758300EF1214C6C2B4121A64121A452B
:0317F2000C80C5A3
:0117F50022D1
:1018E1007B007A007908750D017DD01217B085084B
:1018F10025E525C394004007E525D394064010E46F
:0F190100F508FB7A007908750D017DD01217F6F5
:0119100022B4
:100F4D002020202020202020202020202020202094
:100F5D0020202020C3BBD3D0D0C5CFA2202020205D
:100F6D002020202020202020202020202020202074
:100F7D002020202020202020202020202020202064
:100F8D000020202020202020202020202020202074
:100F9D002020202020202020202020202020202044
:100FAD002020202020202020202020202020202034
:100FBD002020202020202020202020202020202024
:100FCD00202000000002060A1222C222120A060286
:100FDD00000000000000000000003F00003000385D
:100FED00003C0000000000000000000000000000B8
:100FFD000000003E003F0000000000000000000067
:10100D000000000000FC08080808FF08080808FC9C
:10101D0008000000000702020202FF02020202079E
:10102D0000000000FE020A8A8A8AFA8A8A8A0A0267
:10103D00FE000000FF40484848484F48494E484090
:10104D00FF0000109272FE911990884453A2520A2B
:10105D00060000020100FF008188444629110905A0
:10106D00030100202424E4242424201010FF101058
:10107D00F00000081C0B080C054E24100C0320403A
:10108D003F000000F80000FF004030DF101010F0AE
:10109D00101000000F0402FF4040202116081621F9
:1010AD006020000022722A26E22A722200F8000037
:1010BD00FF00000042C242223F221212000F408068
:1010CD007F000020242C35E6342C2400FC2424E25F
:1010DD0022220021114D817F05592118070000FFA3
:1010ED00000000804030FC070AA8A8A9AEAAA8A855
:1010FD000808000000007F00007E22222222227EAE
:10110D00000000000000FC54545655545454FC008B
:10111D00000000002038013D414145594141710019
:10112D0008300000404242424242FEC24242424228
:10113D0042400040402010080403003F4040404022
:10114D0040700000048444E4342C27242424E40457
:10115D0004040002010000FF0909092949C97F00A3
:10116D000000000000000000000000000000000072
:10117D000000000000000000000000000000000062
:10118D0000000000FC0C1424448484848444241442
:10119D000CFC00001F10101010101010101010106B
:1011AD00101F0000FC0106E02832222232EA020262
:1011BD00FE000000FF0010110907010F11115C80E6
:1011CD007F00004042CC0400509434D41FD41454FA
:1011DD0034100000007F2010824322120A070A12E9
:1011ED00E2420002023252921F3252121F925232CA
:1011FD0002020000424222120A06FF060A12326261
:10120D002202000000F828292E2AF8282C2B2AF873
:10121D0000000008080B09090909FF090909090B54
:10122D0008080000040404FC04141410907F10102E
:10123D00F00000040C0404034222110C2320602052
:10124D001F000010B897929094B810007F48484442
:10125D0074200000FF0A0A4A8A7F00003F4444427E
:10126D0072200000808080808080808080808080DF
:10127D00C080000000000000000000000000000021
:10128D000000000000040404040404040404060423
:10129D000000000010101010101010101010101081
:1012AD001810000004848484848484848484848459
:1012BD00040000002020202020202020202020209D
:1012CD0020200000FE020202FE0202FE02020202C5
:1012DD00FE0000007F28242320202021222222220C
:1012ED007F0000000282828282FE828282C282029E
:1012FD0000000020202020203F202020203F202003
:10130D00302000101010101091121E94101010109B
:10131D00101000004020100C0301000001020C7899
:10132D0030000000404040404040FE202020202062
:10133D00202000000000000000003F4040404040E1
:10134D0038000000000000807C0800007E84000052
:10135D000000002010080601000000000001061822
:10136D003010000010101010907F101010F81000A9
:10137D00000000004020100C03000000007F4040E2
:10138D0078200040404040404040FF4040404040B9
:10139D00404000000000000000007F000000000041
:0313AD000000003D
:10187100E4FFA29533F50BA296E433F50CA297E4AD
:1018810033F50DE4FE740B2EF8E6F4F6740B2EF826
:10189100E65401F60EBE03EDE50B4207E50C25E02B
:0A18A1004207E50D25E025E04207AF
:0118AB00221A
:101982001218718F09E50960167F3C7E00121A1346
:101992001218718F0AE509B50A02FF227F00227F21
:0119A2000044
:0119A3002221
:10002600E4FF121982EF7003020A957826760C080F
:1000360076E524FE7003020A2B046003020A957B10
:10004600007A007908750D017DD01217B07F327ED7
:1000560000121A13850825E5252401FFE433FEC3A3
:10006600E5239FEE6480F8748098500205233001E2
:1000760003020562D201E52570137826760C087610
:10008600E57BFF7A0F794D120A96020562E5256433
:100096000170427826760C0876E57BFF7A0F798E1A
:1000A600120A96C2B2D2B3750C0F750DD0C2027B7E
:1000B60012E4FDFF121658750C0F750DD0C2027BA7
:1000C600147D10E4FF121658750C0F750DD0C20280
:1000D6007B2A02040AE525640270757826760C08E8
:1000E60076E57BFF7A0F798E120A96C2B2D2B37585
:1000F6000C0F750DD0C2027B12E4FDFF1216587567
:100106000C0F750DD0C2027B147D10E4FF12165839
:10011600750C0F750DD0C2027B2A7D20E4FF1216E6
:1001260058750C0F750DD0C2027B12E4FD7F0212CA
:100136001658750C0F750DD0C2027B147D107F0208
:10014600121658750C0F750DD0C2027B2C02055B7A
:10015600E5256403600302020B7826760C0876E533
:100166007BFF7A0F798E120A96C2B2D2B3750C0F44
:10017600750DD0C2027B12E4FDFF121658750C0FE6
:10018600750DD0C2027B147D10E4FF121658750C53
:100196000F750DD0C2027B2A7D20E4FF121658751A
:1001A6000C0F750DD0C2027B12E4FD7F02121658A9
:1001B600750C0F750DD0C2027B147D107F021216CE
:1001C60058750C0F750DD0C2027B2C7D207F021254
:1001D6001658750C0F750DD0C2027B12E4FD7F0414
:1001E600121658750C0F750DD0C2027B147D107F48
:1001F60004121658750C0F750DD0C2027B2E7D2089
:100206007F0402055FE525640460030202F3782695
:10021600760C0876E57BFF7A0F798E120A96C2B2C3
:10022600D2B3750C0F750DD0C2027B12E4FDFF121E
:100236001658750C0F750DD0C2027B147D10E4FFA5
:10024600121658750C0F750DD0C2027B2A7D20E45C
:10025600FF121658750C0F750DD0C2027B12E4FD05
:100266007F02121658750C0F750DD0C2027B147DD5
:10027600107F02121658750C0F750DD0C2027B2C1A
:100286007D207F02121658750C0F750DD0C2027BA9
:1002960012E4FD7F04121658750C0F750DD0C202BC
:1002A6007B147D107F04121658750C0F750DD0C285
:1002B600027B2E7D207F04121658750C0F750DD00B
:1002C600C2027B12E4FD7F06121658750C0F750DDF
:1002D600D0C2027B147D107F06121658750C0F755E
:1002E6000DD0C2027B307D207F0602055FE52564C6
:1002F6000560030204117826760C0876E57BFF7A02
:100306000F798E120A96C2B2D2B3750C0F750DD044
:10031600C2027B12E4FDFF121658750C0F750DD044
:10032600C2027B147D10E4FF121658750C0F750D72
:10033600D0C2027B2A7D20E4FF121658750C0F7579
:100346000DD0C2027B12E4FD7F02121658750C0F07
:10035600750DD0C2027B147D107F02121658750CE3
:100366000F750DD0C2027B2C7D207F0212165875A8
:100376000C0F750DD0C2027B12E4FD7F04121658D5
:10038600750C0F750DD0C2027B147D107F041216FA
:1003960058750C0F750DD0C2027B2E7D207F04127E
:1003A6001658750C0F750DD0C2027B12E4FD7F0640
:1003B600121658750C0F750DD0C2027B147D107F76
:1003C60006121658750C0F750DD0C2027B307D20B3
:1003D6007F06121658D2B2C2B3750C0F750DD0C275
:1003E600027B12E4FDFF121658750C0F750DD0C274
:1003F600027B147D10E4FF121658750C0F750DD094
:10040600C2027B327D20E4FF02055FE525640660BB
:10041600030205627826760C0876E57BFF7A0F796B
:100426008E120A96C2B2D2B3750C0F750DD0C202E7
:100436007B12E4FDFF121658750C0F750DD0C20223
:100446007B147D10E4FF121658750C0F750DD0C283
:10045600027B2A7D20E4FF121658750C0F750DD00D
:10046600C2027B12E4FD7F02121658750C0F750D41
:10047600D0C2027B147D107F02121658750C0F75C0
:100486000DD0C2027B2C7D207F02121658750C0FF0
:10049600750DD0C2027B12E4FD7F04121658750C4E
:1004A6000F750DD0C2027B147D107F04121658758D
:1004B6000C0F750DD0C2027B2E7D207F04121658BC
:1004C600750C0F750DD0C2027B12E4FD7F06121665
:1004D60058750C0F750DD0C2027B147D107F061265
:1004E6001658750C0F750DD0C2027B307D207F0625
:1004F600121658D2B2C2B3750C0F750DD0C2027B5C
:1005060012E4FDFF121658750C0F750DD0C2027B52
:10051600147D10E4FF121658750C0F750DD0C2022B
:100526007B327D20E4FF121658750C0F750DD0C274
:10053600027B12E4FD7F02121658750C0F750DD062
:10054600C2027B147D107F02121658750C0F750DB2
:10055600D0C2027B347D207F021216587FF47E01C2
:10056600121A13E5257BFF70067A0F794D80047AFF
:100576000F798E120A96E523D3952540037523013C
:10058600E52364017039E523D395255032C2B2D2F2
:10059600B3750C0F750DD0D2027B12E4FDFF121657
:1005A60058750C0F750DD0D2027B147D10E4FF1226
:1005B6001658750C0F750DD0D2027B2A0208D9E5A4
:1005C600236402706CE523D395255065C2B2D2B37D
:1005D600750C0F750DD0C2027B12E4FDFF12165882
:1005E600750C0F750DD0C2027B147D10E4FF121638
:1005F60058750C0F750DD0C2027B2A7D20E4FF12C0
:100606001658750C0F750DD0D2027B12E4FD7F02D1
:10061600121658750C0F750DD0D2027B147D107F03
:1006260002121658750C0F750DD0D2027B2C020AD9
:1006360024E523640360030206E6E523D3952540FB
:10064600030206E6C2B2D2B3750C0F750DD0C20214
:100656007B12E4FDFF121658750C0F750DD0C20201
:100666007B147D10E4FF121658750C0F750DD0C261
:10067600027B2A7D20E4FF121658750C0F750DD0EB
:10068600C2027B12E4FD7F02121658750C0F750D1F
:10069600D0C2027B147D107F02121658750C0F759E
:1006A6000DD0C2027B2C7D207F02121658750C0FCE
:1006B600750DD0D2027B12E4FD7F04121658750C1C
:1006C6000F750DD0D2027B147D107F04121658755B
:1006D6000C0F750DD0D2027B2E7D207F04020A28D6
:1006E600E523640460030207C8E523D39525400388
:1006F6000207C8C2B2D2B3750C0F750DD0C2027B09
:1007060012E4FDFF121658750C0F750DD0C2027B50
:10071600147D10E4FF121658750C0F750DD0C20229
:100726007B2A7D20E4FF121658750C0F750DD0C27A
:10073600027B12E4FD7F02121658750C0F750DD060
:10074600C2027B147D107F02121658750C0F750DB0
:10075600D0C2027B2C7D207F02121658750C0F75B5
:100766000DD0C2027B12E4FD7F04121658750C0FE1
:10077600750DD0C2027B147D107F04121658750CBD
:100786000F750DD0C2027B2E7D207F041216587580
:100796000C0F750DD0D2027B12E4FD7F061216589F
:1007A600750C0F750DD0D2027B147D107F061216C4
:1007B60058750C0F750DD0D2027B307D207F060256
:1007C6000A28E523640560030208E0E523D395259E
:1007D60040030208E0C2B2D2B3750C0F750DD0C249
:1007E600027B12E4FDFF121658750C0F750DD0C270
:1007F600027B147D10E4FF121658750C0F750DD090
:10080600C2027B2A7D20E4FF121658750C0F750D67
:10081600D0C2027B12E4FD7F02121658750C0F75CA
:100826000DD0C2027B147D107F02121658750C0F74
:10083600750DD0C2027B2C7D207F02121658750CD6
:100846000F750DD0C2027B12E4FD7F041216587597
:100856000C0F750DD0C2027B147D107F0412165842
:10086600750C0F750DD0C2027B2E7D207F041216EB
:1008760058750C0F750DD0C2027B12E4FD7F06126F
:100886001658750C0F750DD0C2027B147D107F06AD
:10089600121658750C0F750DD0C2027B307D207F65
:1008A60006121658D2B2C2B3750C0F750DD0D2020D
:1008B6007B12E4FDFF121658750C0F750DD0D2028F
:1008C6007B147D10E4FF121658750C0F750DD0D2EF
:1008D600027B327D20E4FF020A28E52364066003DA
:1008E600020A95E523D395254003020A95C2B2D2A2
:1008F600B3750C0F750DD0C2027B12E4FDFF121604
:1009060058750C0F750DD0C2027B147D10E4FF12D2
:100916001658750C0F750DD0C2027B2A7D20E4FF98
:10092600121658750C0F750DD0C2027B12E4FD7FAE
:1009360002121658750C0F750DD0C2027B147D106D
:100946007F02121658750C0F750DD0C2027B2C7DD6
:10095600207F02121658750C0F750DD0C2027B123D
:10096600E4FD7F04121658750C0F750DD0C2027B7C
:10097600147D107F04121658750C0F750DD0C20227
:100986007B2E7D207F04121658750C0F750DD0C274
:10099600027B12E4FD7F06121658750C0F750DD0FA
:1009A600C2027B147D107F06121658750C0F750D4A
:1009B600D0C2027B307D207F06121658D2B2C2B357
:1009C600750C0F750DD0C2027B12E4FDFF1216588E
:1009D600750C0F750DD0C2027B147D10E4FF121644
:1009E60058750C0F750DD0C2027B327D20E4FF12C4
:1009F6001658750C0F750DD0D2027B12E4FD7F02DE
:100A0600121658750C0F750DD0D2027B147D107F0F
:100A160002121658750C0F750DD0D2027B347D204C
:100A26007F020216583001677826761C087685E51F
:100A360023B401028030E523B40202803BE523B4EF
:100A4600030D7B007A007968750D407D808034E562
:100A560023B4040D7B007A007968750D407DC08053
:100A660022E523B4050D7B007A007968750D40E414
:100A7600FD8010E523B406177B007A007968750DB2
:0F0A8600407D401217B07B007A007968120A9603
:010A9500223E
:1013B0007827E618466003021486C201F523C2B2FC
:1013C000D2B3750C0F750DD0C202FBFDFF1216587B
:1013D000750C0F750DD0C2027B027D10E4FF121652
:1013E00058750C0F750DD0C2027B047D207F03124F
:1013F0001658750C0F750DD0C2027B067D307F0329
:10140000121658D2B2C2B3750C0F750DD0C2027B42
:1014100008E4FD7F03121658750C0F750DD0C2023B
:101420007B0A7D107F03121658750C0F750DD0C204
:10143000027B1C7D30E4FF121658C2B2D2B3750C89
:101440000F750DD0D2027B12E4FD7F06121658757F
:101450000C0F750DD0D2027B147D107F061216582A
:10146000D2B2C2B3750C0F750DD0C2027B267D209F
:101470007F06121658750C0F750DD0C2027B287DA1
:10148000307F060216587827E66401184670097BFB
:09149000FF7A0F798E120A9622F0
:101767002020202020202020202020202020202072
:1017770020202020CAD5B5BDD0C2D0C5CFA22020F9
:101787002020202020202020202020202020202052
:101797002020202020202020202020202020202042
:0917A70020202020202020200039
:1019A400758921758BFD758DFD758CFC758A6C753B
:1019B40098D8E4F587D28ED28CD2AFD2ACD2A9D249
:0219C4009C2263
:03000B00021911C6
:10191100C0E0C0D075D000C000758CFC758A6CD356
:101921007827E6940018E69400400708E616187038
:091931000116D000D0D0D0E03244
:0300230002193A85
:10193A00C0E0C0D075D000C000309810E521C39433
:10194A0040500974282521F8A6990521C298D0008B
:05195A00D0D0D0E03206
:1016C000051DE51DD3943C4053E521D39400404CC7
:1016D0007B007A00791C750D017DD01217B0851C36
:1016E000257B007A007928E52575F040A4FD750D6D
:1016F000401217F6052585251E7B007A00791E7598
:101700000D017DD01217F67BFF7A177967120A96C2
:0D171000782676050876DCE4F521F51D222B
:1015660002000EE493A3F8E493A34003F68001F28D
:1015760008DFF48029E493A3F85407240CC8C33386
:10158600C4540F4420C8834004F456800146F6DF55
:10159600E4800B010204081020408090171DE47EB1
:1015A600019360BCA3FF543F30E509541FFEE4934A
:1015B600A360010ECF54C025E060A840B8E493A311
:1015C600FAE493A3F8E493A3C8C582C8CAC583CA3C
:1015D600F0A3C8C582C8CAC583CADFE9DEE780BEF4
:011766000082
:10149900BB010CE58229F582E5833AF583E0225008
:1014A90006E92582F8E622BBFE06E92582F8E22252
:0D14B900E58229F582E5833AF583E493226C
:1014C600F8BB010DE58229F582E5833AF583E8F05C
:1014D600225006E92582C8F622BBFE05E92582C808
:0214E600F222F0
:1014E800EF8DF0A4A8F0CF8CF0A428CE8DF0A42E18
:0214F800FE22D2
:1014FA00E88FF0A4CC8BF0A42CFCE98EF0A42CFC91
:10150A008AF0EDA42CFCEA8EF0A4CDA8F08BF0A40E
:10151A002DCC3825F0FDE98FF0A42CCD35F0FCEB6D
:10152A008EF0A4FEA9F0EB8FF0A4CFC5F02ECD3932
:0F153A00FEE43CFCEAA42DCE35F0FDE43CFC229F
:10154900EB9FF5F0EA9E42F0E99D42F0E89C45F0F8
:01155900226F
:00000001FF
