:0200000080225C
:0100030032CA
:02000B00217062
:0100130032BA
:01001B0032B2
:100023003275815F7590FF75B0FF7522403162D2E2
:10003300AF1161200012113D0134E522C4540FF5C4
:100043005EE522540FF55F22E52575250023900018
:100053005573013401F5210A211D21222127C200F4
:1000630043B0C0C200E5B0443FF4603311E611E68B
:10007300E5B0443F60290030E7130020E60ED200CC
:10008300752503E5B0443FF470F9018F220030E693
:1000930007D20075250480EBD20075250580E4D2D4
:1000A300B6C2B7000030B60BC2B6D2B7000030B745
:1000B3001A018F11E611E6000020B60AD200752559
:1000C300010011E611E630B6FD01B411E611E600B8
:1000D3000020B70AD2007525020011E611E630B7F9
:1000E300FD01B4C0D0D2D37F327E32DEFEDFFAD040
:1000F300D022852221E52164706007312C852122DD
:1001030001347522700134852221E52160073148CD
:1001130085212201347522000134752232013475A0
:10012300222401347522050134E521C4540FFDE571
:1001330021540F00B40906007C000D214204FCED9C
:08014300C42CF52122E521C4C2
:10014B00540FFDE521540F70067C091D008002142D
:10015B00FCEDC42CF52122758901758CEA758ACECC
:10016B00D2A9D28C22C0E0C0D0758CEA758ACED2CF
:10017B00A7D2A6745E2523F8E69001A693F580E539
:10018B00236004C2A62194C2A70523E5231414609F
:10019B000221A1752300D0D0D0E032287EA4647256
:0501AB0061217C2060D1
:00000001FF
